:100000000C9434000C94D6010C9483010C94510090
:100010000C9451000C9451000C9451000C9451001C
:100020000C9451000C9451000C9451000C9451000C
:100030000C9451000C9451000C9451000C945100FC
:100040000C9451000C9451000C9451000C945100EC
:100050000C9451000C9451000C9451000C945100DC
:100060000C9451000C94510011241FBECFEFD8E026
:10007000DEBFCDBF11E0A0E0B1E0ECE0F4E002C0F3
:1000800005900D92A030B107D9F721E0A0E0B1E0D2
:1000900001C01D92A730B207E1F70E9429010C941C
:1000A00004020C940000389A399A3A9A569A549A53
:1000B000579A5B9A5A9A5F9A85E085BD83E884BD1A
:1000C00081E087BD84B18FEF84B9E99AE89AE9E6C7
:1000D000F0E0808184608083808182608083789476
:1000E0000895ECE7F0E0808180648083EAE7F0E047
:1000F0008081876080838081806880838FEF84B96E
:100100000895ECE7F0E08081807F8083EAE7F0E00B
:10011000808180648083808186FDFDCF809178001E
:100120002091790090E0922B069710F015B8089571
:100130008FEF85B908951092B20080E68093B300E6
:10014000E0EBF0E08081826C8083E1EBF0E0808185
:1001500085608083B99BFECF1092B10082E087BB9F
:1001600008950F931F93CF93DF93181619064CF43D
:100170008C01C0E0D0E00E949B0021960C171D0767
:10018000D1F7DF91CF911F910F9108958D33910594
:10019000A4F482349105A4F488339105A4F48E323A
:1001A0009105A4F48F319105A4F48A319105A4F44A
:1001B0004097ACF481E090E0089581E090E00895EC
:1001C0008CE890E0089580EA90E008958EEB90E04E
:1001D000089582ED90E0089586EE90E008958AEF0C
:1001E00090E0089515BC16BC87BD85E085BD0895D7
:1001F000CF93DF93C2E0D0E088EC90E00E94F20061
:1002000084E690E00E94B10086E990E00E94F2004E
:1002100084E690E00E94B10082E390E00E94F20048
:1002200088EC90E00E94B1008AEF90E00E94F2001A
:1002300088EE93E00E94B10080E090E00E94F2001E
:1002400084EF91E00E94B1002197B1F6DF91CF9148
:1002500008951F93CF93DF930E9453008091020172
:1002600090910301892BD1F385E085BD83E884BD9E
:100270000E94F8000E947100809102019091030198
:10028000019739F5C1E0D0E013E8D0930101C093A4
:1002900000018091020190910301892B19F415BC92
:1002A00014BD5E980E9481002FEF83EC99E02150ED
:1002B00080409040E1F700C000005C9A25E32A9559
:1002C000F1F700005C988091020190910301019781
:1002D000E1F21092010110920001109203011092BC
:1002E00002010E94290180E090E0DF91CF911F91EF
:1002F000089515BC16BC0E94C60087BD85E085BD6B
:1003000083E884BD08951F920F920FB60F921124B7
:100310002F933F934F935F936F937F938F939F930D
:10032000AF93BF93CF93DF93EF93FF93809105013A
:1003300090910601892B51F482E08093810081E045
:1003400090E090930601809305011DC010928100FA
:10035000C4E8D0E028813981AFE9B6E40E94F50114
:10036000929582958F7089279F70892780930401C9
:100370008091040190E00E94790119821882109204
:10038000060110920501FF91EF91DF91CF91BF918E
:10039000AF919F918F917F916F915F914F913F911D
:1003A0002F910F900FBE0F901F9018951F920F92D4
:1003B0000FB60F9211248F939F938091000190911B
:1003C0000101892B39F481E090E09093030180933F
:1003D000020104C010920301109202019F918F91BB
:1003E0000F900FBE0F901F901895A29FB001B39F62
:1003F000C001A39F700D811D1124911DB29F700D2E
:0C040000811D1124911D0895F894FFCF78
:00000001FF
