:100000000C9434000C9451000C940B010C9451008E
:100010000C9451000C9451000C9451000C9451001C
:100020000C9451000C9451000C9451000C9451000C
:100030000C9451000C9451000C9451000C945100FC
:100040000C9451000C9451000C9451000C945100EC
:100050000C9451000C9451000C9451000C945100DC
:100060000C9451000C94510011241FBECFEFD8E026
:10007000DEBFCDBF11E0A0E0B1E0EAEEF2E002C0E9
:1000800005900D92A030B107D9F721E0A0E0B1E0D2
:1000900001C01D92A530B207E1F70E94EF000C9459
:1000A00073010C940000569A549A579A5B9A5A9A84
:1000B0005F9A85E085BD83E884BD84E687BDE99AC3
:1000C000E9E6F0E08081846080837894089510925E
:1000D000B20080E68093B300E0EBF0E08081826CB8
:1000E0008083E1EBF0E0808185608083B99BFECF67
:1000F0001092B10082E087BB08950F931F93CF93B6
:10010000DF93181619064CF48C01C0E0D0E00E9471
:10011000670021960C171D07D1F7DF91CF911F9132
:100120000F910895883391058CF48E3291058CF4EB
:10013000843291058CF4853191058CF480319105E0
:100140008CF4069794F48AEF90E0089581E090E0B3
:10015000089586E490E0089584E690E0089582E8AA
:1001600090E0089586E990E0089588EC90E0089585
:1001700015BC16BC87BD85E085BD0895CF93DF9380
:10018000C2E0D0E088EC90E00E94B80084E690E005
:100190000E947D0086E990E00E94B80084E690E02D
:1001A0000E947D0082E390E00E94B80088EC90E01D
:1001B0000E947D008AEF90E00E94B80088EE93E0F4
:1001C0000E947D0080E090E00E94B80084EF91E002
:1001D0000E947D002197B1F6DF91CF9108950E9492
:1001E00053000E94BE002FEB84ED91E0215080402F
:1001F0009040E1F700C000005C9A23E02A95F1F7F7
:1002000000005C98F0CF15BC16BC0E94920087BD20
:1002100085E085BD08951F920F920FB60F921124AD
:100220002F933F934F935F936F937F938F939F93FE
:10023000AF93BF93CF93DF93EF93FF93809103012D
:1002400090910401892B51F482E08093810081E038
:1002500090E0909304018093030123C010928100E9
:10026000C4E8D0E028813981AFE9B6E40E94640196
:10027000929582958F7089279F70892780930001BE
:100280008091000190E00E9403011982188210926F
:1002900004011092030181E090E0909302018093A9
:1002A0000101FF91EF91DF91CF91BF91AF919F91AC
:1002B0008F917F916F915F914F913F912F910F900F
:1002C0000FBE0F901F901895A29FB001B39FC00161
:1002D000A39F700D811D1124911DB29F700D811D72
:0A02E0001124911D0895F894FFCF3A
:00000001FF
