S014000046696E616C50726F6A6563742E737265634F
S11300000C9434000C94D3010C947A010C94510098
S11300100C9451000C9451000C9451000C94510018
S11300200C9451000C9451000C9451000C94510008
S11300300C9451000C9451000C9451000C945100F8
S11300400C9451000C9451000C9451000C945100E8
S11300500C9451000C9451000C9451000C945100D8
S11300600C9451000C94510011241FBECFEFD8E022
S1130070DEBFCDBF11E0A0E0B1E0E6E0F4E002C0F5
S113008005900D92A030B107D9F721E0A0E0B1E0CE
S113009001C01D92A930B207E1F70E9420010C941F
S11300A001020C940000389A399A3A9A569A549A52
S11300B0579A5B9A5A9A5F9A15BC14BC17BC84B1C0
S11300C08FEF84B9E99AE89AE9E6F0E080818460E8
S11300D0808380818260808378940895ECE7F0E0E7
S11300E0808180648083EAE7F0E080818760808398
S11300F08081806880838FEF84B90895ECE7F0E015
S11301008081807F8083EAE7F0E08081806480835F
S1130110808186FDFDCF809178002091790090E068
S1130120922B069710F015B808958FEF85B90895AE
S11301301092B20080E68093B300E0EBF0E080819F
S1130140826C8083E1EBF0E0808185608083B99BE1
S1130150FECF1092B10082E087BB08950F931F93E6
S1130160CF93DF93181619064CF48C01C0E0D0E04D
S11301700E94980021960C171D07D1F7DF91CF91AB
S11301801F910F910895883391058CF48E32910557
S11301908CF4843291058CF4853191058CF4803192
S11301A091058CF4069794F48AEF90E0089581E029
S11301B090E0089586E490E0089584E690E0089540
S11301C082E890E0089586E990E0089588EC90E054
S11301D0089515BC16BC87BD85E085BD0895CF93F1
S11301E0DF93C2E0D0E088EC90E00E94E90084E66E
S11301F090E00E94AE0086E990E00E94E90084E667
S113020090E00E94AE0082E390E00E94E90088EC56
S113021090E00E94AE008AEF90E00E94E90088EE30
S113022093E00E94AE0080E090E00E94E90084EF39
S113023091E00E94AE002197B1F6DF91CF9108952D
S11302401F93CF93DF930E945300809102019091FA
S11302500301892BD1F385E085BD83E884BD0E9429
S1130260EF000E946E0080910201909103010197BA
S113027039F5C1E0D0E013E8D0930101C093000147
S11302808091020190910301892B19F415BC14BDCE
S11302905E980E947E002FEF87E893E12150804012
S11302A09040E1F700C000005C9A25E32A95F1F73D
S11302B000005C9880910201909103010197E1F2A2
S11302C01092010110920001109203011092020198
S11302D00E94200180E090E0DF91CF911F9108956A
S11302E015BC16BC0E94C30087BD85E085BD83E8AC
S11302F084BD08951F920F920FB60F9211242F936D
S11303003F934F935F936F937F938F939F93AF9399
S1130310BF93CF93DF93EF93FF9380910701909165
S11303200801892B51F482E08093810081E090E000
S1130330909308018093070123C010928100C4E8C0
S1130340D0E028813981AFE9B6E40E94F2019295A8
S113035082958F7089279F708927809304018091EB
S1130360040190E00E947001198218821092080121
S11303701092070181E090E09093060180930501BB
S1130380FF91EF91DF91CF91BF91AF919F918F91A9
S11303907F916F915F914F913F912F910F900FBE7D
S11303A00F901F9018951F920F920FB60F92112461
S11303B08F939F938091000190910101892B39F4CF
S11303C081E090E0909303018093020104C01092B5
S11303D00301109202019F918F910F900FBE0F9015
S11303E01F901895A29FB001B39FC001A39F700DE9
S11303F0811D1124911DB29F700D811D1124911D29
S10904000895F894FFCFFB
S9030000FC
