:100000000C9434000C946F010C9416010C94510064
:100010000C9451000C9451000C9451000C9451001C
:100020000C9451000C9451000C9451000C9451000C
:100030000C9451000C9451000C9451000C945100FC
:100040000C9451000C9451000C9451000C945100EC
:100050000C9451000C9451000C9451000C945100DC
:100060000C9451000C94510011241FBECFEFD8E026
:10007000DEBFCDBF11E0A0E0B1E0EEE3F3E002C0EF
:1000800005900D92A230B107D9F721E0A2E0B1E0CE
:1000900001C01D92A730B207E1F70E94F0000C9456
:1000A0009D010C940000569A549A579A5B9A5A9A5A
:1000B0005F9A15BC14BC17BCE99AE89AE9E6F0E02F
:1000C00080818460808380818160808378940895BA
:1000D0001092B20080E68093B300E0EBF0E0808104
:1000E000826C8083E1EBF0E0808185608083B99B46
:1000F000FECF1092B10082E087BB08950F931F934B
:10010000CF93DF93181619064CF48C01C0E0D0E0B1
:100110000E94680021960C171D07D1F7DF91CF913F
:100120001F910F910895883391058CF48E329105BB
:100130008CF4843291058CF4853191058CF48031F6
:1001400091058CF4069794F48AEF90E0089581E08D
:1001500090E0089586E490E0089584E690E00895A4
:1001600082E890E0089586E990E0089588EC90E0B8
:10017000089515BC16BC87BD85E085BD0895CF9355
:10018000DF93C2E0D0E088EC90E00E94B90084E602
:1001900090E00E947E0086E990E00E94B90084E62B
:1001A00090E00E947E0082E390E00E94B90088EC1B
:1001B00090E00E947E008AEF90E00E94B90088EEF5
:1001C00093E00E947E0080E090E00E94B90084EFFE
:1001D00091E00E947E002197B1F6DF91CF910895C2
:1001E0000E94530080910001909101010197D1F389
:1001F00085E085BD83E884BD0E94BF002FEF87E8BE
:1002000093E1215080409040E1F700C000005C9AEB
:1002100025E32A95F1F700005C98F0CF15BC16BCD9
:100220000E94930087BD85E085BD08951F920F92BF
:100230000FB60F9211242F933F934F935F936F93B9
:100240007F938F939F93AF93BF93CF93DF93EF935E
:10025000FF938091050190910601892B51F482E072
:100260008093810081E090E09093060180930501E6
:1002700023C010928100C4E8D0E028813981AFE921
:10028000B6E40E948E01929582958F7089279F70A7
:100290008927809302018091020190E00E940E0163
:1002A00019821882109206011092050181E090E0F7
:1002B0009093040180930301FF91EF91DF91CF911F
:1002C000BF91AF919F918F917F916F915F914F916E
:1002D0003F912F910F900FBE0F901F9018951F9276
:1002E0000F920FB60F9211248F939F93809100016C
:1002F00090910101019681709078992324F40197DF
:100300008E6F9F6F019690930101809300019F91E2
:100310008F910F900FBE0F901F901895A29FB00164
:10032000B39FC001A39F700D811D1124911DB29F29
:0E033000700D811D1124911D0895F894FFCFCA
:02033E000100BC
:00000001FF
