S014000046696E616C50726F6A6563742E737265634F
S11300000C9434000C9414030C94C1020C9451000D
S11300100C9451000C9451000C9451000C94510018
S11300200C9451000C9451000C9451000C94510008
S11300300C9451000C9451000C9451000C945100F8
S11300400C9451000C9451000C9451000C945100E8
S11300500C9451000C9451000C9451000C945100D8
S11300600C9451000C94510011241FBECFEFD8E022
S1130070DEBFCDBF12E0A0E0B1E0E8E8F6E002C0E8
S113008005900D92AC32B107D9F722E0ACE2B2E0B0
S113009001C01D92A333B207E1F70E9455020C94EC
S11300A042030C940000389A399A3A9A569A549A10
S11300B0579A5B9A5A9A5F9A85E085BD83E884BD16
S11300C081E087BD84B18FEF84B9E99AE89AE9E6C3
S11300D0F0E0808184608083808182608083789472
S11300E008951092C50087E68093C40088E1809348
S11300F0C10086E08093C2000895CF93DF93CDB70B
S1130100DEB7C456D1090FB6F894DEBF0FBECDBF1B
S11301108FE1E0E0F1E0DE01119601900D928A9505
S1130120E1F7FE01B09685E4DF011D928A95E9F7B7
S11301301092320210923102E0913102F0913202B7
S113014081E090E08C0F9D1FE80FF91F80818823C8
S113015051F1E0ECF0E026EC30E0808185FFFDCF4A
S1130160A0913102B091320281E090E08C0F9D1F8A
S1130170A80FB91F8C91D9018C9380913102909171
S1130180320201969093320280933102A09131029F
S1130190B091320281E090E08C0F9D1FA80FB91F2F
S11301A08C918111DACFCC59DF4F0FB6F894DEBFB2
S11301B00FBECDBFDF91CF910895CF93DF93CDB71D
S11301C0DEB7C456D1090FB6F894DEBF0FBECDBF5B
S11301D082E1E4E6F1E0DE01119601900D928A9548
S11301E0E1F7FE01739682E5DF011D928A95E9F736
S11301F01092320210923102E0913102F0913202F7
S113020081E090E08C0F9D1FE80FF91F8081882307
S113021051F1E0ECF0E026EC30E0808185FFFDCF89
S1130220A0913102B091320281E090E08C0F9D1FC9
S1130230A80FB91F8C91D9018C93809131029091B0
S1130240320201969093320280933102A0913102DE
S1130250B091320281E090E08C0F9D1FA80FB91F6E
S11302608C918111DACFCC59DF4F0FB6F894DEBFF1
S11302700FBECDBFDF91CF910895CF93DF93CDB75C
S1130280DEB7C456D1090FB6F894DEBF0FBECDBF9A
S113029082E1E8ECF1E0DE01119601900D928A957D
S11302A0E1F7FE01739682E5DF011D928A95E9F775
S11302B01092320210923102E0913102F091320236
S11302C081E090E08C0F9D1FE80FF91F8081882347
S11302D051F1E0ECF0E026EC30E0808185FFFDCFC9
S11302E0A0913102B091320281E090E08C0F9D1F09
S11302F0A80FB91F8C91D9018C93809131029091F0
S1130300320201969093320280933102A09131021D
S1130310B091320281E090E08C0F9D1FA80FB91FAD
S11303208C918111DACFCC59DF4F0FB6F894DEBF30
S11303300FBECDBFDF91CF910895ECE7F0E080814F
S113034080648083EAE7F0E0808187608083808135
S1130350806880838FEF84B90895ECE7F0E08081B2
S1130360807F8083EAE7F0E08081806480838081FD
S113037086FDFDCF809178002091790090E0922B4A
S1130380069710F015B808958FEF85B90895109267
S1130390B20080E68093B300E0EBF0E08081826CF1
S11303A08083E1EBF0E0808185608083B99BFECFA0
S11303B01092B10082E087BB08950F931F93CF93EF
S11303C0DF93181619064CF48C01C0E0D0E00E94AB
S11303D0C70121960C171D07D1F7DF91CF911F910B
S11303E00F9108958D339105A4F482349105A4F4FA
S11303F088339105A4F48E329105A4F48F319105CC
S1130400A4F48A319105A4F44097ACF481E090E01F
S1130410089581E090E0089586E990E0089580EAE7
S113042090E008958EEB90E0089582ED90E00895B9
S113043086EE90E008958AEF90E0089515BC16BC0E
S113044087BD85E085BD0895CF93DF93C2E0D0E0FA
S113045088EC90E00E941E0284E690E00E94DD0198
S113046086E990E00E941E0284E690E00E94DD018D
S113047082E390E00E941E0288EC90E00E94DD017D
S11304808AEF90E00E941E0288EE93E00E94DD0154
S113049080E090E00E941E0284EF91E00E94DD0162
S11304A02197B1F6DF91CF9108951F93CF93DF93F6
S11304B00E9453000E94710080912E0290912F029D
S11304C0892B61F40E947D0088EC90E00E94DD019C
S11304D080912E0290912F02892BA1F385E085BD96
S11304E083E884BD0E9424020E949D010E94DD00D5
S11304F080912E0290912F02019739F5C1E0D0E04E
S113050013E8D0932D02C0932C0280912E02909177
S11305102F02892B19F415BC14BD5E980E94AD01FD
S11305202FEF83EC99E0215080409040E1F700C028
S113053000005C9A25E32A95F1F700005C9880910D
S11305402E0290912F020197E1F20E943D01109238
S11305502D0210922C0210922F0210922E020E9451
S1130560550280E090E0DF91CF911F91089515BC72
S113057016BC0E94F20187BD85E085BD83E884BD79
S113058008951F920F920FB60F9211242F933F9349
S11305904F935F936F937F938F939F93AF93BF9387
S11305A0CF93DF93EF93FF938091310290913202C6
S11305B0892B51F482E08093810081E090E0909354
S11305C03202809331021DC010928100C4E8D0E051
S11305D028813981AFE9B6E40E943303929582956C
S11305E08F7089279F708927809330028091300211
S11305F090E00E94B702198218821092320210927F
S11306003102FF91EF91DF91CF91BF91AF919F9113
S11306108F917F916F915F914F913F912F910F90A7
S11306200FBE0F901F9018951F920F920FB60F9246
S113063011248F939F9380912C0290912D02892BEA
S113064039F481E090E090932F0280932E0204C04D
S113065010922F0210922E029F918F910F900FBE35
S11306600F901F901895A29FB001B39FC001A39F44
S1130670700D811D1124911DB29F700D811D1124D7
S10B0680911D0895F894FFCFC9
S1130688507265737320627574746F6E20746F2072
S113069873746172742072616E67696E67200000FA
S11306A8000000000000000000000000000000003E
S11306B8000000000000000000000000000000002E
S11306C8000000000000000000000000000000001E
S11306D8000000000000000000000000000000000E
S11306E8000000005374617274696E672052616E71
S11306F867696E6720000000000000000000000029
S113070800000000000000000000000000000000DD
S113071800000000000000000000000000000000CD
S113072800000000000000000000000000000000BD
S113073800000000000000000000000000000000AD
S1130748000000000000000053746F7070696E6749
S11307582052616E67696E67200000000000000087
S1130768000000000000000000000000000000007D
S1130778000000000000000000000000000000006D
S1130788000000000000000000000000000000005D
S1130798000000000000000000000000000000004D
S10F07A800000000000000000000000041
S9030000FC
